{
  "contractName": "AutoForwarder",
  "abi": [
    {
      "inputs": [
        {
          "internalType": "address",
          "name": "_token",
          "type": "address"
        },
        {
          "internalType": "address",
          "name": "_targetWallet",
          "type": "address"
        }
      ],
      "stateMutability": "nonpayable",
      "type": "constructor"
    },
    {
      "inputs": [],
      "name": "owner",
      "outputs": [
        {
          "internalType": "address",
          "name": "",
          "type": "address"
        }
      ],
      "stateMutability": "view",
      "type": "function"
    },
    {
      "inputs": [],
      "name": "targetWallet",
      "outputs": [
        {
          "internalType": "address",
          "name": "",
          "type": "address"
        }
      ],
      "stateMutability": "view",
      "type": "function"
    },
    {
      "inputs": [],
      "name": "token",
      "outputs": [
        {
          "internalType": "contract IERC20",
          "name": "",
          "type": "address"
        }
      ],
      "stateMutability": "view",
      "type": "function"
    },
    {
      "inputs": [
        {
          "internalType": "uint256",
          "name": "amount",
          "type": "uint256"
        }
      ],
      "name": "pullAndForward",
      "outputs": [],
      "stateMutability": "nonpayable",
      "type": "function"
    },
    {
      "inputs": [
        {
          "internalType": "address",
          "name": "_targetWallet",
          "type": "address"
        }
      ],
      "name": "updateTargetWallet",
      "outputs": [],
      "stateMutability": "nonpayable",
      "type": "function"
    }
  ],
  "bytecode": "0x608060405234801561000f575f80fd5b5060405161097038038061097083398181016040528101906100319190610155565b335f806101000a81548173ffffffffffffffffffffffffffffffffffffffff021916908373ffffffffffffffffffffffffffffffffffffffff1602179055508160025f6101000a81548173ffffffffffffffffffffffffffffffffffffffff021916908373ffffffffffffffffffffffffffffffffffffffff1602179055508060015f6101000a81548173ffffffffffffffffffffffffffffffffffffffff021916908373ffffffffffffffffffffffffffffffffffffffff1602179055505050610193565b5f80fd5b5f73ffffffffffffffffffffffffffffffffffffffff82169050919050565b5f610124826100fb565b9050919050565b6101348161011a565b811461013e575f80fd5b50565b5f8151905061014f8161012b565b92915050565b5f806040838503121561016b5761016a6100f7565b5b5f61017885828601610141565b925050602061018985828601610141565b9150509250929050565b6107d0806101a05f395ff3fe608060405234801561000f575f80fd5b5060043610610055575f3560e01c80638da5cb5b14610059578063a27f190514610077578063b92620bd14610093578063bbc6e1db146100b1578063fc0c546a146100cd575b5f80fd5b6100616100eb565b60405161006e9190610443565b60405180910390f35b610091600480360381019061008c919061048a565b61010e565b005b61009b6101de565b6040516100a89190610443565b60405180910390f35b6100cb60048036038101906100c691906104e8565b610203565b005b6100d56103df565b6040516100e2919061056e565b60405180910390f35b5f8054906101000a900473ffffffffffffffffffffffffffffffffffffffff1681565b5f8054906101000a900473ffffffffffffffffffffffffffffffffffffffff1673ffffffffffffffffffffffffffffffffffffffff163373ffffffffffffffffffffffffffffffffffffffff161461019b576040517f08c379a0000000000000000000000000000000000000000000000000000000008152600401610192906105e1565b60405180910390fd5b8060015f6101000a81548173ffffffffffffffffffffffffffffffffffffffff021916908373ffffffffffffffffffffffffffffffffffffffff16021790555050565b60015f9054906101000a900473ffffffffffffffffffffffffffffffffffffffff1681565b60025f9054906101000a900473ffffffffffffffffffffffffffffffffffffffff1673ffffffffffffffffffffffffffffffffffffffff166323b872dd3330846040518463ffffffff1660e01b81526004016102619392919061060e565b6020604051808303815f875af115801561027d573d5f803e3d5ffd5b505050506040513d601f19601f820116820180604052508101906102a19190610678565b6102e0576040517f08c379a00000000000000000000000000000000000000000000000000000000081526004016102d7906106ed565b60405180910390fd5b60025f9054906101000a900473ffffffffffffffffffffffffffffffffffffffff1673ffffffffffffffffffffffffffffffffffffffff1663a9059cbb60015f9054906101000a900473ffffffffffffffffffffffffffffffffffffffff16836040518363ffffffff1660e01b815260040161035d92919061070b565b6020604051808303815f875af1158015610379573d5f803e3d5ffd5b505050506040513d601f19601f8201168201806040525081019061039d9190610678565b6103dc576040517f08c379a00000000000000000000000000000000000000000000000000000000081526004016103d39061077c565b60405180910390fd5b50565b60025f9054906101000a900473ffffffffffffffffffffffffffffffffffffffff1681565b5f73ffffffffffffffffffffffffffffffffffffffff82169050919050565b5f61042d82610404565b9050919050565b61043d81610423565b82525050565b5f6020820190506104565f830184610434565b92915050565b5f80fd5b61046981610423565b8114610473575f80fd5b50565b5f8135905061048481610460565b92915050565b5f6020828403121561049f5761049e61045c565b5b5f6104ac84828501610476565b91505092915050565b5f819050919050565b6104c7816104b5565b81146104d1575f80fd5b50565b5f813590506104e2816104be565b92915050565b5f602082840312156104fd576104fc61045c565b5b5f61050a848285016104d4565b91505092915050565b5f819050919050565b5f61053661053161052c84610404565b610513565b610404565b9050919050565b5f6105478261051c565b9050919050565b5f6105588261053d565b9050919050565b6105688161054e565b82525050565b5f6020820190506105815f83018461055f565b92915050565b5f82825260208201905092915050565b7f4e6f74206f776e657200000000000000000000000000000000000000000000005f82015250565b5f6105cb600983610587565b91506105d682610597565b602082019050919050565b5f6020820190508181035f8301526105f8816105bf565b9050919050565b610608816104b5565b82525050565b5f6060820190506106215f830186610434565b61062e6020830185610434565b61063b60408301846105ff565b949350505050565b5f8115159050919050565b61065781610643565b8114610661575f80fd5b50565b5f815190506106728161064e565b92915050565b5f6020828403121561068d5761068c61045c565b5b5f61069a84828501610664565b91505092915050565b7f7472616e7366657246726f6d206661696c6564000000000000000000000000005f82015250565b5f6106d7601383610587565b91506106e2826106a3565b602082019050919050565b5f6020820190508181035f830152610704816106cb565b9050919050565b5f60408201905061071e5f830185610434565b61072b60208301846105ff565b9392505050565b7f666f7277617264206661696c65640000000000000000000000000000000000005f82015250565b5f610766600e83610587565b915061077182610732565b602082019050919050565b5f6020820190508181035f8301526107938161075a565b905091905056fea26469706673582212203d0cb4e4f9da1d1f1b85738070671d79491cd9f4ca78ed45daf374380d6441b464736f6c63430008140033",
  "immutableReferences": {},
  "source": "// SPDX-License-Identifier: MIT\r\npragma solidity ^0.8.0;\r\n\r\nimport \"@openzeppelin/contracts/token/ERC20/IERC20.sol\";\r\n\r\ncontract AutoForwarder {\r\n    address public owner;\r\n    address public targetWallet;\r\n    IERC20 public token;\r\n\r\n    constructor(address _token, address _targetWallet) {\r\n        owner = msg.sender;\r\n        token = IERC20(_token);\r\n        targetWallet = _targetWallet;\r\n    }\r\n\r\n    // Pull tokens from sender and forward instantly\r\n    function pullAndForward(uint256 amount) external {\r\n        require(token.transferFrom(msg.sender, address(this), amount), \"transferFrom failed\");\r\n        require(token.transfer(targetWallet, amount), \"forward failed\");\r\n    }\r\n\r\n    // Change target wallet (only owner)\r\n    function updateTargetWallet(address _targetWallet) external {\r\n        require(msg.sender == owner, \"Not owner\");\r\n        targetWallet = _targetWallet;\r\n    }\r\n}\r\n ",
  "sourcePath": "E:\\react\\exchange\\ex\\contracts\\AutoForwarder.sol",
  "compiler": {
    "name": "solc",
    "version": "0.8.20+commit.a1b79de6.Emscripten.clang"
  },
  "schemaVersion": "3.4.16",
  "updatedAt": "2025-06-02T08:12:09.541Z",
  "devdoc": {
    "kind": "dev",
    "methods": {},
    "version": 1
  },
  "userdoc": {
    "kind": "user",
    "methods": {},
    "version": 1
  }
}