{
  "contractName": "AutoForward",
  "abi": [
    {
      "inputs": [
        {
          "internalType": "address",
          "name": "_forwardTo",
          "type": "address"
        }
      ],
      "stateMutability": "nonpayable",
      "type": "constructor"
    },
    {
      "inputs": [],
      "name": "forwardTo",
      "outputs": [
        {
          "internalType": "address",
          "name": "",
          "type": "address"
        }
      ],
      "stateMutability": "view",
      "type": "function"
    },
    {
      "inputs": [],
      "name": "owner",
      "outputs": [
        {
          "internalType": "address",
          "name": "",
          "type": "address"
        }
      ],
      "stateMutability": "view",
      "type": "function"
    },
    {
      "stateMutability": "payable",
      "type": "receive"
    },
    {
      "inputs": [
        {
          "internalType": "address",
          "name": "tokenAddress",
          "type": "address"
        }
      ],
      "name": "forwardToken",
      "outputs": [],
      "stateMutability": "nonpayable",
      "type": "function"
    },
    {
      "inputs": [
        {
          "internalType": "address",
          "name": "tokenAddress",
          "type": "address"
        },
        {
          "internalType": "address",
          "name": "spender",
          "type": "address"
        }
      ],
      "name": "approveToken",
      "outputs": [],
      "stateMutability": "nonpayable",
      "type": "function"
    }
  ],
  "bytecode": "0x608060405234801561000f575f80fd5b5060405161085a38038061085a83398181016040528101906100319190610114565b805f806101000a81548173ffffffffffffffffffffffffffffffffffffffff021916908373ffffffffffffffffffffffffffffffffffffffff1602179055503360015f6101000a81548173ffffffffffffffffffffffffffffffffffffffff021916908373ffffffffffffffffffffffffffffffffffffffff1602179055505061013f565b5f80fd5b5f73ffffffffffffffffffffffffffffffffffffffff82169050919050565b5f6100e3826100ba565b9050919050565b6100f3816100d9565b81146100fd575f80fd5b50565b5f8151905061010e816100ea565b92915050565b5f60208284031215610129576101286100b6565b5b5f61013684828501610100565b91505092915050565b61070e8061014c5f395ff3fe608060405260043610610042575f3560e01c806303105b04146100af57806388c4f0f6146100d75780638da5cb5b146100ff578063e45bf7a614610129576100ab565b366100ab575f8054906101000a900473ffffffffffffffffffffffffffffffffffffffff1673ffffffffffffffffffffffffffffffffffffffff166108fc3490811502906040515f60405180830381858888f193505050501580156100a9573d5f803e3d5ffd5b005b5f80fd5b3480156100ba575f80fd5b506100d560048036038101906100d091906104db565b610153565b005b3480156100e2575f80fd5b506100fd60048036038101906100f89190610519565b610287565b005b34801561010a575f80fd5b50610113610435565b6040516101209190610553565b60405180910390f35b348015610134575f80fd5b5061013d61045a565b60405161014a9190610553565b60405180910390f35b60015f9054906101000a900473ffffffffffffffffffffffffffffffffffffffff1673ffffffffffffffffffffffffffffffffffffffff163373ffffffffffffffffffffffffffffffffffffffff16146101e2576040517f08c379a00000000000000000000000000000000000000000000000000000000081526004016101d9906105c6565b60405180910390fd5b5f8290508073ffffffffffffffffffffffffffffffffffffffff1663095ea7b3837fffffffffffffffffffffffffffffffffffffffffffffffffffffffffffffffff6040518363ffffffff1660e01b81526004016102419291906105fc565b6020604051808303815f875af115801561025d573d5f803e3d5ffd5b505050506040513d601f19601f820116820180604052508101906102819190610658565b50505050565b60015f9054906101000a900473ffffffffffffffffffffffffffffffffffffffff1673ffffffffffffffffffffffffffffffffffffffff163373ffffffffffffffffffffffffffffffffffffffff1614610316576040517f08c379a000000000000000000000000000000000000000000000000000000000815260040161030d906105c6565b60405180910390fd5b5f8190505f8173ffffffffffffffffffffffffffffffffffffffff166370a08231306040518263ffffffff1660e01b81526004016103549190610553565b602060405180830381865afa15801561036f573d5f803e3d5ffd5b505050506040513d601f19601f8201168201806040525081019061039391906106ad565b90508173ffffffffffffffffffffffffffffffffffffffff1663a9059cbb5f8054906101000a900473ffffffffffffffffffffffffffffffffffffffff16836040518363ffffffff1660e01b81526004016103ef9291906105fc565b6020604051808303815f875af115801561040b573d5f803e3d5ffd5b505050506040513d601f19601f8201168201806040525081019061042f9190610658565b50505050565b60015f9054906101000a900473ffffffffffffffffffffffffffffffffffffffff1681565b5f8054906101000a900473ffffffffffffffffffffffffffffffffffffffff1681565b5f80fd5b5f73ffffffffffffffffffffffffffffffffffffffff82169050919050565b5f6104aa82610481565b9050919050565b6104ba816104a0565b81146104c4575f80fd5b50565b5f813590506104d5816104b1565b92915050565b5f80604083850312156104f1576104f061047d565b5b5f6104fe858286016104c7565b925050602061050f858286016104c7565b9150509250929050565b5f6020828403121561052e5761052d61047d565b5b5f61053b848285016104c7565b91505092915050565b61054d816104a0565b82525050565b5f6020820190506105665f830184610544565b92915050565b5f82825260208201905092915050565b7f4f6e6c79206f776e6572000000000000000000000000000000000000000000005f82015250565b5f6105b0600a8361056c565b91506105bb8261057c565b602082019050919050565b5f6020820190508181035f8301526105dd816105a4565b9050919050565b5f819050919050565b6105f6816105e4565b82525050565b5f60408201905061060f5f830185610544565b61061c60208301846105ed565b9392505050565b5f8115159050919050565b61063781610623565b8114610641575f80fd5b50565b5f815190506106528161062e565b92915050565b5f6020828403121561066d5761066c61047d565b5b5f61067a84828501610644565b91505092915050565b61068c816105e4565b8114610696575f80fd5b50565b5f815190506106a781610683565b92915050565b5f602082840312156106c2576106c161047d565b5b5f6106cf84828501610699565b9150509291505056fea264697066735822122068251aa3f72ca012b488cc7d8cb016bea389a3b2a0f2f8c63e8a24d16715a30f64736f6c63430008140033",
  "immutableReferences": {},
  "source": "// SPDX-License-Identifier: MIT\r\npragma solidity ^0.8.0;\r\n\r\ninterface IERC20 {\r\n    function transfer(address to, uint256 value) external returns (bool);\r\n    function approve(address spender, uint256 amount) external returns (bool);\r\n    function balanceOf(address account) external view returns (uint256);\r\n}\r\n\r\ncontract AutoForward {\r\n    address public forwardTo;\r\n    address public owner;\r\n\r\n    constructor(address _forwardTo) {\r\n        forwardTo = _forwardTo;\r\n        owner = msg.sender;\r\n    }\r\n\r\n    // Auto-forward any ETH received to forwardTo\r\n    receive() external payable {\r\n        payable(forwardTo).transfer(msg.value);\r\n    }\r\n\r\n    // Manually forward ERC-20 tokens to forwardTo\r\n    function forwardToken(address tokenAddress) external {\r\n        require(msg.sender == owner, \"Only owner\");\r\n        IERC20 token = IERC20(tokenAddress);\r\n        uint256 balance = token.balanceOf(address(this));\r\n        token.transfer(forwardTo, balance);\r\n    }\r\n\r\n    // Approve a spender for unlimited access to a token\r\n    function approveToken(address tokenAddress, address spender) external {\r\n        require(msg.sender == owner, \"Only owner\");\r\n        IERC20 token = IERC20(tokenAddress);\r\n        token.approve(spender, type(uint256).max);\r\n    }\r\n}\r\n",
  "sourcePath": "E:\\react\\exchange\\ex\\contracts\\AutoForwarder.sol",
  "compiler": {
    "name": "solc",
    "version": "0.8.20+commit.a1b79de6.Emscripten.clang"
  },
  "schemaVersion": "3.4.16",
  "updatedAt": "2025-06-02T08:42:33.706Z",
  "devdoc": {
    "kind": "dev",
    "methods": {},
    "version": 1
  },
  "userdoc": {
    "kind": "user",
    "methods": {},
    "version": 1
  }
}